{"contracts/SupplyChain.sol":{"SupplyChain":{"abi":[{"anonymous":false,"inputs":[{"indexed":false,"internalType":"uint256","name":"id","type":"uint256"},{"indexed":false,"internalType":"string","name":"name","type":"string"},{"indexed":false,"internalType":"uint256","name":"price","type":"uint256"},{"indexed":false,"internalType":"address","name":"seller","type":"address"}],"name":"ItemCreated","type":"event"},{"anonymous":false,"inputs":[{"indexed":false,"internalType":"uint256","name":"id","type":"uint256"}],"name":"ItemDelivered","type":"event"},{"anonymous":false,"inputs":[{"indexed":false,"internalType":"uint256","name":"id","type":"uint256"},{"indexed":false,"internalType":"address","name":"buyer","type":"address"}],"name":"ItemPurchased","type":"event"},{"inputs":[{"internalType":"uint256","name":"_id","type":"uint256"}],"name":"confirmDelivery","outputs":[],"stateMutability":"nonpayable","type":"function"},{"inputs":[{"internalType":"string","name":"_name","type":"string"},{"internalType":"uint256","name":"_price","type":"uint256"}],"name":"createItem","outputs":[],"stateMutability":"nonpayable","type":"function"},{"inputs":[],"name":"itemCount","outputs":[{"internalType":"uint256","name":"","type":"uint256"}],"stateMutability":"view","type":"function"},{"inputs":[{"internalType":"uint256","name":"","type":"uint256"}],"name":"items","outputs":[{"internalType":"uint256","name":"id","type":"uint256"},{"internalType":"string","name":"name","type":"string"},{"internalType":"uint256","name":"price","type":"uint256"},{"internalType":"enum SupplyChain.State","name":"state","type":"uint8"},{"internalType":"address","name":"seller","type":"address"},{"internalType":"address","name":"buyer","type":"address"}],"stateMutability":"view","type":"function"},{"inputs":[{"internalType":"uint256","name":"_id","type":"uint256"}],"name":"purchaseItem","outputs":[],"stateMutability":"payable","type":"function"}],"evm":{"bytecode":{"linkReferences":{},"object":"6080604052348015600f57600080fd5b506111ce8061001f6000396000f3fe60806040526004361061004a5760003560e01c80636bfb0d011461004f5780638c5517421461007a578063bfb231d2146100a3578063d38ea5bf146100e5578063fd84cb9714610101575b600080fd5b34801561005b57600080fd5b5061006461012a565b60405161007191906107e9565b60405180910390f35b34801561008657600080fd5b506100a1600480360381019061009c919061098a565b610130565b005b3480156100af57600080fd5b506100ca60048036038101906100c591906109e6565b6102f8565b6040516100dc96959493929190610b4a565b60405180910390f35b6100ff60048036038101906100fa91906109e6565b610409565b005b34801561010d57600080fd5b50610128600480360381019061012391906109e6565b610647565b005b60005481565b60008081548092919061014290610be1565b91905055506040518060c0016040528060005481526020018381526020018281526020016000600281111561017a57610179610a92565b5b81526020013373ffffffffffffffffffffffffffffffffffffffff168152602001600073ffffffffffffffffffffffffffffffffffffffff1681525060016000805481526020019081526020016000206000820151816000015560208201518160010190816101e99190610e35565b506040820151816002015560608201518160030160006101000a81548160ff0219169083600281111561021f5761021e610a92565b5b021790555060808201518160030160016101000a81548173ffffffffffffffffffffffffffffffffffffffff021916908373ffffffffffffffffffffffffffffffffffffffff16021790555060a08201518160040160006101000a81548173ffffffffffffffffffffffffffffffffffffffff021916908373ffffffffffffffffffffffffffffffffffffffff1602179055509050507f4f7f943ede3f118d52f137992d1d5e5f5723aac6037c6b8814b8432f44ed05a16000548383336040516102ec9493929190610f07565b60405180910390a15050565b600160205280600052604060002060009150905080600001549080600101805461032190610c58565b80601f016020809104026020016040519081016040528092919081815260200182805461034d90610c58565b801561039a5780601f1061036f5761010080835404028352916020019161039a565b820191906000526020600020905b81548152906001019060200180831161037d57829003601f168201915b5050505050908060020154908060030160009054906101000a900460ff16908060030160019054906101000a900473ffffffffffffffffffffffffffffffffffffffff16908060040160009054906101000a900473ffffffffffffffffffffffffffffffffffffffff16905086565b600060016000838152602001908152602001600020905060008211801561043257506000548211155b610471576040517f08c379a000000000000000000000000000000000000000000000000000000000815260040161046890610f9f565b60405180910390fd5b806002015434146104b7576040517f08c379a00000000000000000000000000000000000000000000000000000000081526004016104ae9061100b565b60405180910390fd5b600060028111156104cb576104ca610a92565b5b8160030160009054906101000a900460ff1660028111156104ef576104ee610a92565b5b1461052f576040517f08c379a000000000000000000000000000000000000000000000000000000000815260040161052690611077565b60405180910390fd5b338160040160006101000a81548173ffffffffffffffffffffffffffffffffffffffff021916908373ffffffffffffffffffffffffffffffffffffffff16021790555060018160030160006101000a81548160ff0219169083600281111561059a57610599610a92565b5b02179055508060030160019054906101000a900473ffffffffffffffffffffffffffffffffffffffff1673ffffffffffffffffffffffffffffffffffffffff166108fc349081150290604051600060405180830381858888f19350505050158015610609573d6000803e3d6000fd5b507f7ce670ea54227685ed72f8669179c51b47ba2251ce7cfac367725a7b8f9b743d823360405161063b929190611097565b60405180910390a15050565b60006001600083815260200190815260200160002090503373ffffffffffffffffffffffffffffffffffffffff168160040160009054906101000a900473ffffffffffffffffffffffffffffffffffffffff1673ffffffffffffffffffffffffffffffffffffffff16146106f0576040517f08c379a00000000000000000000000000000000000000000000000000000000081526004016106e79061110c565b60405180910390fd5b6001600281111561070457610703610a92565b5b8160030160009054906101000a900460ff16600281111561072857610727610a92565b5b14610768576040517f08c379a000000000000000000000000000000000000000000000000000000000815260040161075f90611178565b60405180910390fd5b60028160030160006101000a81548160ff021916908360028111156107905761078f610a92565b5b02179055507fd2f1cdd76b4e7bfba9c07af47c5c4f187ffbbd992b4fa1afce4df6a00a166e85826040516107c491906107e9565b60405180910390a15050565b6000819050919050565b6107e3816107d0565b82525050565b60006020820190506107fe60008301846107da565b92915050565b6000604051905090565b600080fd5b600080fd5b600080fd5b600080fd5b6000601f19601f8301169050919050565b7f4e487b7100000000000000000000000000000000000000000000000000000000600052604160045260246000fd5b61086b82610822565b810181811067ffffffffffffffff8211171561088a57610889610833565b5b80604052505050565b600061089d610804565b90506108a98282610862565b919050565b600067ffffffffffffffff8211156108c9576108c8610833565b5b6108d282610822565b9050602081019050919050565b82818337600083830152505050565b60006109016108fc846108ae565b610893565b90508281526020810184848401111561091d5761091c61081d565b5b6109288482856108df565b509392505050565b600082601f83011261094557610944610818565b5b81356109558482602086016108ee565b91505092915050565b610967816107d0565b811461097257600080fd5b50565b6000813590506109848161095e565b92915050565b600080604083850312156109a1576109a061080e565b5b600083013567ffffffffffffffff8111156109bf576109be610813565b5b6109cb85828601610930565b92505060206109dc85828601610975565b9150509250929050565b6000602082840312156109fc576109fb61080e565b5b6000610a0a84828501610975565b91505092915050565b600081519050919050565b600082825260208201905092915050565b60005b83811015610a4d578082015181840152602081019050610a32565b60008484015250505050565b6000610a6482610a13565b610a6e8185610a1e565b9350610a7e818560208601610a2f565b610a8781610822565b840191505092915050565b7f4e487b7100000000000000000000000000000000000000000000000000000000600052602160045260246000fd5b60038110610ad257610ad1610a92565b5b50565b6000819050610ae382610ac1565b919050565b6000610af382610ad5565b9050919050565b610b0381610ae8565b82525050565b600073ffffffffffffffffffffffffffffffffffffffff82169050919050565b6000610b3482610b09565b9050919050565b610b4481610b29565b82525050565b600060c082019050610b5f60008301896107da565b8181036020830152610b718188610a59565b9050610b8060408301876107da565b610b8d6060830186610afa565b610b9a6080830185610b3b565b610ba760a0830184610b3b565b979650505050505050565b7f4e487b7100000000000000000000000000000000000000000000000000000000600052601160045260246000fd5b6000610bec826107d0565b91507fffffffffffffffffffffffffffffffffffffffffffffffffffffffffffffffff8203610c1e57610c1d610bb2565b5b600182019050919050565b7f4e487b7100000000000000000000000000000000000000000000000000000000600052602260045260246000fd5b60006002820490506001821680610c7057607f821691505b602082108103610c8357610c82610c29565b5b50919050565b60008190508160005260206000209050919050565b60006020601f8301049050919050565b600082821b905092915050565b600060088302610ceb7fffffffffffffffffffffffffffffffffffffffffffffffffffffffffffffffff82610cae565b610cf58683610cae565b95508019841693508086168417925050509392505050565b6000819050919050565b6000610d32610d2d610d28846107d0565b610d0d565b6107d0565b9050919050565b6000819050919050565b610d4c83610d17565b610d60610d5882610d39565b848454610cbb565b825550505050565b600090565b610d75610d68565b610d80818484610d43565b505050565b5b81811015610da457610d99600082610d6d565b600181019050610d86565b5050565b601f821115610de957610dba81610c89565b610dc384610c9e565b81016020851015610dd2578190505b610de6610dde85610c9e565b830182610d85565b50505b505050565b600082821c905092915050565b6000610e0c60001984600802610dee565b1980831691505092915050565b6000610e258383610dfb565b9150826002028217905092915050565b610e3e82610a13565b67ffffffffffffffff811115610e5757610e56610833565b5b610e618254610c58565b610e6c828285610da8565b600060209050601f831160018114610e9f5760008415610e8d578287015190505b610e978582610e19565b865550610eff565b601f198416610ead86610c89565b60005b82811015610ed557848901518255600182019150602085019450602081019050610eb0565b86831015610ef25784890151610eee601f891682610dfb565b8355505b6001600288020188555050505b505050505050565b6000608082019050610f1c60008301876107da565b8181036020830152610f2e8186610a59565b9050610f3d60408301856107da565b610f4a6060830184610b3b565b95945050505050565b7f4974656d20646f6573206e6f7420657869737400000000000000000000000000600082015250565b6000610f89601383610a1e565b9150610f9482610f53565b602082019050919050565b60006020820190508181036000830152610fb881610f7c565b9050919050565b7f496e636f72726563742070726963650000000000000000000000000000000000600082015250565b6000610ff5600f83610a1e565b915061100082610fbf565b602082019050919050565b6000602082019050818103600083015261102481610fe8565b9050919050565b7f4974656d206e6f7420617661696c61626c650000000000000000000000000000600082015250565b6000611061601283610a1e565b915061106c8261102b565b602082019050919050565b6000602082019050818103600083015261109081611054565b9050919050565b60006040820190506110ac60008301856107da565b6110b96020830184610b3b565b9392505050565b7f4f6e6c792062757965722063616e20636f6e6669726d2064656c697665727900600082015250565b60006110f6601f83610a1e565b9150611101826110c0565b602082019050919050565b60006020820190508181036000830152611125816110e9565b9050919050565b7f4974656d206e6f7420696e207472616e73697400000000000000000000000000600082015250565b6000611162601383610a1e565b915061116d8261112c565b602082019050919050565b6000602082019050818103600083015261119181611155565b905091905056fea2646970667358221220120d416d416ec1699fd4d6b2f004c91e7fb71f6b03ba59e87fceb83e50b0374b64736f6c634300081b0033","opcodes":"PUSH1 0x80 PUSH1 0x40 MSTORE CALLVALUE DUP1 ISZERO PUSH1 0xF JUMPI PUSH1 0x0 DUP1 REVERT JUMPDEST POP PUSH2 0x11CE DUP1 PUSH2 0x1F PUSH1 0x0 CODECOPY PUSH1 0x0 RETURN INVALID PUSH1 0x80 PUSH1 0x40 MSTORE PUSH1 0x4 CALLDATASIZE LT PUSH2 0x4A JUMPI PUSH1 0x0 CALLDATALOAD PUSH1 0xE0 SHR DUP1 PUSH4 0x6BFB0D01 EQ PUSH2 0x4F JUMPI DUP1 PUSH4 0x8C551742 EQ PUSH2 0x7A JUMPI DUP1 PUSH4 0xBFB231D2 EQ PUSH2 0xA3 JUMPI DUP1 PUSH4 0xD38EA5BF EQ PUSH2 0xE5 JUMPI DUP1 PUSH4 0xFD84CB97 EQ PUSH2 0x101 JUMPI JUMPDEST PUSH1 0x0 DUP1 REVERT JUMPDEST CALLVALUE DUP1 ISZERO PUSH2 0x5B JUMPI PUSH1 0x0 DUP1 REVERT JUMPDEST POP PUSH2 0x64 PUSH2 0x12A JUMP JUMPDEST PUSH1 0x40 MLOAD PUSH2 0x71 SWAP2 SWAP1 PUSH2 0x7E9 JUMP JUMPDEST PUSH1 0x40 MLOAD DUP1 SWAP2 SUB SWAP1 RETURN JUMPDEST CALLVALUE DUP1 ISZERO PUSH2 0x86 JUMPI PUSH1 0x0 DUP1 REVERT JUMPDEST POP PUSH2 0xA1 PUSH1 0x4 DUP1 CALLDATASIZE SUB DUP2 ADD SWAP1 PUSH2 0x9C SWAP2 SWAP1 PUSH2 0x98A JUMP JUMPDEST PUSH2 0x130 JUMP JUMPDEST STOP JUMPDEST CALLVALUE DUP1 ISZERO PUSH2 0xAF JUMPI PUSH1 0x0 DUP1 REVERT JUMPDEST POP PUSH2 0xCA PUSH1 0x4 DUP1 CALLDATASIZE SUB DUP2 ADD SWAP1 PUSH2 0xC5 SWAP2 SWAP1 PUSH2 0x9E6 JUMP JUMPDEST PUSH2 0x2F8 JUMP JUMPDEST PUSH1 0x40 MLOAD PUSH2 0xDC SWAP7 SWAP6 SWAP5 SWAP4 SWAP3 SWAP2 SWAP1 PUSH2 0xB4A JUMP JUMPDEST PUSH1 0x40 MLOAD DUP1 SWAP2 SUB SWAP1 RETURN JUMPDEST PUSH2 0xFF PUSH1 0x4 DUP1 CALLDATASIZE SUB DUP2 ADD SWAP1 PUSH2 0xFA SWAP2 SWAP1 PUSH2 0x9E6 JUMP JUMPDEST PUSH2 0x409 JUMP JUMPDEST STOP JUMPDEST CALLVALUE DUP1 ISZERO PUSH2 0x10D JUMPI PUSH1 0x0 DUP1 REVERT JUMPDEST POP PUSH2 0x128 PUSH1 0x4 DUP1 CALLDATASIZE SUB DUP2 ADD SWAP1 PUSH2 0x123 SWAP2 SWAP1 PUSH2 0x9E6 JUMP JUMPDEST PUSH2 0x647 JUMP JUMPDEST STOP JUMPDEST PUSH1 0x0 SLOAD DUP2 JUMP JUMPDEST PUSH1 0x0 DUP1 DUP2 SLOAD DUP1 SWAP3 SWAP2 SWAP1 PUSH2 0x142 SWAP1 PUSH2 0xBE1 JUMP JUMPDEST SWAP2 SWAP1 POP SSTORE POP PUSH1 0x40 MLOAD DUP1 PUSH1 0xC0 ADD PUSH1 0x40 MSTORE DUP1 PUSH1 0x0 SLOAD DUP2 MSTORE PUSH1 0x20 ADD DUP4 DUP2 MSTORE PUSH1 0x20 ADD DUP3 DUP2 MSTORE PUSH1 0x20 ADD PUSH1 0x0 PUSH1 0x2 DUP2 GT ISZERO PUSH2 0x17A JUMPI PUSH2 0x179 PUSH2 0xA92 JUMP JUMPDEST JUMPDEST DUP2 MSTORE PUSH1 0x20 ADD CALLER PUSH20 0xFFFFFFFFFFFFFFFFFFFFFFFFFFFFFFFFFFFFFFFF AND DUP2 MSTORE PUSH1 0x20 ADD PUSH1 0x0 PUSH20 0xFFFFFFFFFFFFFFFFFFFFFFFFFFFFFFFFFFFFFFFF AND DUP2 MSTORE POP PUSH1 0x1 PUSH1 0x0 DUP1 SLOAD DUP2 MSTORE PUSH1 0x20 ADD SWAP1 DUP2 MSTORE PUSH1 0x20 ADD PUSH1 0x0 KECCAK256 PUSH1 0x0 DUP3 ADD MLOAD DUP2 PUSH1 0x0 ADD SSTORE PUSH1 0x20 DUP3 ADD MLOAD DUP2 PUSH1 0x1 ADD SWAP1 DUP2 PUSH2 0x1E9 SWAP2 SWAP1 PUSH2 0xE35 JUMP JUMPDEST POP PUSH1 0x40 DUP3 ADD MLOAD DUP2 PUSH1 0x2 ADD SSTORE PUSH1 0x60 DUP3 ADD MLOAD DUP2 PUSH1 0x3 ADD PUSH1 0x0 PUSH2 0x100 EXP DUP2 SLOAD DUP2 PUSH1 0xFF MUL NOT AND SWAP1 DUP4 PUSH1 0x2 DUP2 GT ISZERO PUSH2 0x21F JUMPI PUSH2 0x21E PUSH2 0xA92 JUMP JUMPDEST JUMPDEST MUL OR SWAP1 SSTORE POP PUSH1 0x80 DUP3 ADD MLOAD DUP2 PUSH1 0x3 ADD PUSH1 0x1 PUSH2 0x100 EXP DUP2 SLOAD DUP2 PUSH20 0xFFFFFFFFFFFFFFFFFFFFFFFFFFFFFFFFFFFFFFFF MUL NOT AND SWAP1 DUP4 PUSH20 0xFFFFFFFFFFFFFFFFFFFFFFFFFFFFFFFFFFFFFFFF AND MUL OR SWAP1 SSTORE POP PUSH1 0xA0 DUP3 ADD MLOAD DUP2 PUSH1 0x4 ADD PUSH1 0x0 PUSH2 0x100 EXP DUP2 SLOAD DUP2 PUSH20 0xFFFFFFFFFFFFFFFFFFFFFFFFFFFFFFFFFFFFFFFF MUL NOT AND SWAP1 DUP4 PUSH20 0xFFFFFFFFFFFFFFFFFFFFFFFFFFFFFFFFFFFFFFFF AND MUL OR SWAP1 SSTORE POP SWAP1 POP POP PUSH32 0x4F7F943EDE3F118D52F137992D1D5E5F5723AAC6037C6B8814B8432F44ED05A1 PUSH1 0x0 SLOAD DUP4 DUP4 CALLER PUSH1 0x40 MLOAD PUSH2 0x2EC SWAP5 SWAP4 SWAP3 SWAP2 SWAP1 PUSH2 0xF07 JUMP JUMPDEST PUSH1 0x40 MLOAD DUP1 SWAP2 SUB SWAP1 LOG1 POP POP JUMP JUMPDEST PUSH1 0x1 PUSH1 0x20 MSTORE DUP1 PUSH1 0x0 MSTORE PUSH1 0x40 PUSH1 0x0 KECCAK256 PUSH1 0x0 SWAP2 POP SWAP1 POP DUP1 PUSH1 0x0 ADD SLOAD SWAP1 DUP1 PUSH1 0x1 ADD DUP1 SLOAD PUSH2 0x321 SWAP1 PUSH2 0xC58 JUMP JUMPDEST DUP1 PUSH1 0x1F ADD PUSH1 0x20 DUP1 SWAP2 DIV MUL PUSH1 0x20 ADD PUSH1 0x40 MLOAD SWAP1 DUP2 ADD PUSH1 0x40 MSTORE DUP1 SWAP3 SWAP2 SWAP1 DUP2 DUP2 MSTORE PUSH1 0x20 ADD DUP3 DUP1 SLOAD PUSH2 0x34D SWAP1 PUSH2 0xC58 JUMP JUMPDEST DUP1 ISZERO PUSH2 0x39A JUMPI DUP1 PUSH1 0x1F LT PUSH2 0x36F JUMPI PUSH2 0x100 DUP1 DUP4 SLOAD DIV MUL DUP4 MSTORE SWAP2 PUSH1 0x20 ADD SWAP2 PUSH2 0x39A JUMP JUMPDEST DUP3 ADD SWAP2 SWAP1 PUSH1 0x0 MSTORE PUSH1 0x20 PUSH1 0x0 KECCAK256 SWAP1 JUMPDEST DUP2 SLOAD DUP2 MSTORE SWAP1 PUSH1 0x1 ADD SWAP1 PUSH1 0x20 ADD DUP1 DUP4 GT PUSH2 0x37D JUMPI DUP3 SWAP1 SUB PUSH1 0x1F AND DUP3 ADD SWAP2 JUMPDEST POP POP POP POP POP SWAP1 DUP1 PUSH1 0x2 ADD SLOAD SWAP1 DUP1 PUSH1 0x3 ADD PUSH1 0x0 SWAP1 SLOAD SWAP1 PUSH2 0x100 EXP SWAP1 DIV PUSH1 0xFF AND SWAP1 DUP1 PUSH1 0x3 ADD PUSH1 0x1 SWAP1 SLOAD SWAP1 PUSH2 0x100 EXP SWAP1 DIV PUSH20 0xFFFFFFFFFFFFFFFFFFFFFFFFFFFFFFFFFFFFFFFF AND SWAP1 DUP1 PUSH1 0x4 ADD PUSH1 0x0 SWAP1 SLOAD SWAP1 PUSH2 0x100 EXP SWAP1 DIV PUSH20 0xFFFFFFFFFFFFFFFFFFFFFFFFFFFFFFFFFFFFFFFF AND SWAP1 POP DUP7 JUMP JUMPDEST PUSH1 0x0 PUSH1 0x1 PUSH1 0x0 DUP4 DUP2 MSTORE PUSH1 0x20 ADD SWAP1 DUP2 MSTORE PUSH1 0x20 ADD PUSH1 0x0 KECCAK256 SWAP1 POP PUSH1 0x0 DUP3 GT DUP1 ISZERO PUSH2 0x432 JUMPI POP PUSH1 0x0 SLOAD DUP3 GT ISZERO JUMPDEST PUSH2 0x471 JUMPI PUSH1 0x40 MLOAD PUSH32 0x8C379A000000000000000000000000000000000000000000000000000000000 DUP2 MSTORE PUSH1 0x4 ADD PUSH2 0x468 SWAP1 PUSH2 0xF9F JUMP JUMPDEST PUSH1 0x40 MLOAD DUP1 SWAP2 SUB SWAP1 REVERT JUMPDEST DUP1 PUSH1 0x2 ADD SLOAD CALLVALUE EQ PUSH2 0x4B7 JUMPI PUSH1 0x40 MLOAD PUSH32 0x8C379A000000000000000000000000000000000000000000000000000000000 DUP2 MSTORE PUSH1 0x4 ADD PUSH2 0x4AE SWAP1 PUSH2 0x100B JUMP JUMPDEST PUSH1 0x40 MLOAD DUP1 SWAP2 SUB SWAP1 REVERT JUMPDEST PUSH1 0x0 PUSH1 0x2 DUP2 GT ISZERO PUSH2 0x4CB JUMPI PUSH2 0x4CA PUSH2 0xA92 JUMP JUMPDEST JUMPDEST DUP2 PUSH1 0x3 ADD PUSH1 0x0 SWAP1 SLOAD SWAP1 PUSH2 0x100 EXP SWAP1 DIV PUSH1 0xFF AND PUSH1 0x2 DUP2 GT ISZERO PUSH2 0x4EF JUMPI PUSH2 0x4EE PUSH2 0xA92 JUMP JUMPDEST JUMPDEST EQ PUSH2 0x52F JUMPI PUSH1 0x40 MLOAD PUSH32 0x8C379A000000000000000000000000000000000000000000000000000000000 DUP2 MSTORE PUSH1 0x4 ADD PUSH2 0x526 SWAP1 PUSH2 0x1077 JUMP JUMPDEST PUSH1 0x40 MLOAD DUP1 SWAP2 SUB SWAP1 REVERT JUMPDEST CALLER DUP2 PUSH1 0x4 ADD PUSH1 0x0 PUSH2 0x100 EXP DUP2 SLOAD DUP2 PUSH20 0xFFFFFFFFFFFFFFFFFFFFFFFFFFFFFFFFFFFFFFFF MUL NOT AND SWAP1 DUP4 PUSH20 0xFFFFFFFFFFFFFFFFFFFFFFFFFFFFFFFFFFFFFFFF AND MUL OR SWAP1 SSTORE POP PUSH1 0x1 DUP2 PUSH1 0x3 ADD PUSH1 0x0 PUSH2 0x100 EXP DUP2 SLOAD DUP2 PUSH1 0xFF MUL NOT AND SWAP1 DUP4 PUSH1 0x2 DUP2 GT ISZERO PUSH2 0x59A JUMPI PUSH2 0x599 PUSH2 0xA92 JUMP JUMPDEST JUMPDEST MUL OR SWAP1 SSTORE POP DUP1 PUSH1 0x3 ADD PUSH1 0x1 SWAP1 SLOAD SWAP1 PUSH2 0x100 EXP SWAP1 DIV PUSH20 0xFFFFFFFFFFFFFFFFFFFFFFFFFFFFFFFFFFFFFFFF AND PUSH20 0xFFFFFFFFFFFFFFFFFFFFFFFFFFFFFFFFFFFFFFFF AND PUSH2 0x8FC CALLVALUE SWAP1 DUP2 ISZERO MUL SWAP1 PUSH1 0x40 MLOAD PUSH1 0x0 PUSH1 0x40 MLOAD DUP1 DUP4 SUB DUP2 DUP6 DUP9 DUP9 CALL SWAP4 POP POP POP POP ISZERO DUP1 ISZERO PUSH2 0x609 JUMPI RETURNDATASIZE PUSH1 0x0 DUP1 RETURNDATACOPY RETURNDATASIZE PUSH1 0x0 REVERT JUMPDEST POP PUSH32 0x7CE670EA54227685ED72F8669179C51B47BA2251CE7CFAC367725A7B8F9B743D DUP3 CALLER PUSH1 0x40 MLOAD PUSH2 0x63B SWAP3 SWAP2 SWAP1 PUSH2 0x1097 JUMP JUMPDEST PUSH1 0x40 MLOAD DUP1 SWAP2 SUB SWAP1 LOG1 POP POP JUMP JUMPDEST PUSH1 0x0 PUSH1 0x1 PUSH1 0x0 DUP4 DUP2 MSTORE PUSH1 0x20 ADD SWAP1 DUP2 MSTORE PUSH1 0x20 ADD PUSH1 0x0 KECCAK256 SWAP1 POP CALLER PUSH20 0xFFFFFFFFFFFFFFFFFFFFFFFFFFFFFFFFFFFFFFFF AND DUP2 PUSH1 0x4 ADD PUSH1 0x0 SWAP1 SLOAD SWAP1 PUSH2 0x100 EXP SWAP1 DIV PUSH20 0xFFFFFFFFFFFFFFFFFFFFFFFFFFFFFFFFFFFFFFFF AND PUSH20 0xFFFFFFFFFFFFFFFFFFFFFFFFFFFFFFFFFFFFFFFF AND EQ PUSH2 0x6F0 JUMPI PUSH1 0x40 MLOAD PUSH32 0x8C379A000000000000000000000000000000000000000000000000000000000 DUP2 MSTORE PUSH1 0x4 ADD PUSH2 0x6E7 SWAP1 PUSH2 0x110C JUMP JUMPDEST PUSH1 0x40 MLOAD DUP1 SWAP2 SUB SWAP1 REVERT JUMPDEST PUSH1 0x1 PUSH1 0x2 DUP2 GT ISZERO PUSH2 0x704 JUMPI PUSH2 0x703 PUSH2 0xA92 JUMP JUMPDEST JUMPDEST DUP2 PUSH1 0x3 ADD PUSH1 0x0 SWAP1 SLOAD SWAP1 PUSH2 0x100 EXP SWAP1 DIV PUSH1 0xFF AND PUSH1 0x2 DUP2 GT ISZERO PUSH2 0x728 JUMPI PUSH2 0x727 PUSH2 0xA92 JUMP JUMPDEST JUMPDEST EQ PUSH2 0x768 JUMPI PUSH1 0x40 MLOAD PUSH32 0x8C379A000000000000000000000000000000000000000000000000000000000 DUP2 MSTORE PUSH1 0x4 ADD PUSH2 0x75F SWAP1 PUSH2 0x1178 JUMP JUMPDEST PUSH1 0x40 MLOAD DUP1 SWAP2 SUB SWAP1 REVERT JUMPDEST PUSH1 0x2 DUP2 PUSH1 0x3 ADD PUSH1 0x0 PUSH2 0x100 EXP DUP2 SLOAD DUP2 PUSH1 0xFF MUL NOT AND SWAP1 DUP4 PUSH1 0x2 DUP2 GT ISZERO PUSH2 0x790 JUMPI PUSH2 0x78F PUSH2 0xA92 JUMP JUMPDEST JUMPDEST MUL OR SWAP1 SSTORE POP PUSH32 0xD2F1CDD76B4E7BFBA9C07AF47C5C4F187FFBBD992B4FA1AFCE4DF6A00A166E85 DUP3 PUSH1 0x40 MLOAD PUSH2 0x7C4 SWAP2 SWAP1 PUSH2 0x7E9 JUMP JUMPDEST PUSH1 0x40 MLOAD DUP1 SWAP2 SUB SWAP1 LOG1 POP POP JUMP JUMPDEST PUSH1 0x0 DUP2 SWAP1 POP SWAP2 SWAP1 POP JUMP JUMPDEST PUSH2 0x7E3 DUP2 PUSH2 0x7D0 JUMP JUMPDEST DUP3 MSTORE POP POP JUMP JUMPDEST PUSH1 0x0 PUSH1 0x20 DUP3 ADD SWAP1 POP PUSH2 0x7FE PUSH1 0x0 DUP4 ADD DUP5 PUSH2 0x7DA JUMP JUMPDEST SWAP3 SWAP2 POP POP JUMP JUMPDEST PUSH1 0x0 PUSH1 0x40 MLOAD SWAP1 POP SWAP1 JUMP JUMPDEST PUSH1 0x0 DUP1 REVERT JUMPDEST PUSH1 0x0 DUP1 REVERT JUMPDEST PUSH1 0x0 DUP1 REVERT JUMPDEST PUSH1 0x0 DUP1 REVERT JUMPDEST PUSH1 0x0 PUSH1 0x1F NOT PUSH1 0x1F DUP4 ADD AND SWAP1 POP SWAP2 SWAP1 POP JUMP JUMPDEST PUSH32 0x4E487B7100000000000000000000000000000000000000000000000000000000 PUSH1 0x0 MSTORE PUSH1 0x41 PUSH1 0x4 MSTORE PUSH1 0x24 PUSH1 0x0 REVERT JUMPDEST PUSH2 0x86B DUP3 PUSH2 0x822 JUMP JUMPDEST DUP2 ADD DUP2 DUP2 LT PUSH8 0xFFFFFFFFFFFFFFFF DUP3 GT OR ISZERO PUSH2 0x88A JUMPI PUSH2 0x889 PUSH2 0x833 JUMP JUMPDEST JUMPDEST DUP1 PUSH1 0x40 MSTORE POP POP POP JUMP JUMPDEST PUSH1 0x0 PUSH2 0x89D PUSH2 0x804 JUMP JUMPDEST SWAP1 POP PUSH2 0x8A9 DUP3 DUP3 PUSH2 0x862 JUMP JUMPDEST SWAP2 SWAP1 POP JUMP JUMPDEST PUSH1 0x0 PUSH8 0xFFFFFFFFFFFFFFFF DUP3 GT ISZERO PUSH2 0x8C9 JUMPI PUSH2 0x8C8 PUSH2 0x833 JUMP JUMPDEST JUMPDEST PUSH2 0x8D2 DUP3 PUSH2 0x822 JUMP JUMPDEST SWAP1 POP PUSH1 0x20 DUP2 ADD SWAP1 POP SWAP2 SWAP1 POP JUMP JUMPDEST DUP3 DUP2 DUP4 CALLDATACOPY PUSH1 0x0 DUP4 DUP4 ADD MSTORE POP POP POP JUMP JUMPDEST PUSH1 0x0 PUSH2 0x901 PUSH2 0x8FC DUP5 PUSH2 0x8AE JUMP JUMPDEST PUSH2 0x893 JUMP JUMPDEST SWAP1 POP DUP3 DUP2 MSTORE PUSH1 0x20 DUP2 ADD DUP5 DUP5 DUP5 ADD GT ISZERO PUSH2 0x91D JUMPI PUSH2 0x91C PUSH2 0x81D JUMP JUMPDEST JUMPDEST PUSH2 0x928 DUP5 DUP3 DUP6 PUSH2 0x8DF JUMP JUMPDEST POP SWAP4 SWAP3 POP POP POP JUMP JUMPDEST PUSH1 0x0 DUP3 PUSH1 0x1F DUP4 ADD SLT PUSH2 0x945 JUMPI PUSH2 0x944 PUSH2 0x818 JUMP JUMPDEST JUMPDEST DUP2 CALLDATALOAD PUSH2 0x955 DUP5 DUP3 PUSH1 0x20 DUP7 ADD PUSH2 0x8EE JUMP JUMPDEST SWAP2 POP POP SWAP3 SWAP2 POP POP JUMP JUMPDEST PUSH2 0x967 DUP2 PUSH2 0x7D0 JUMP JUMPDEST DUP2 EQ PUSH2 0x972 JUMPI PUSH1 0x0 DUP1 REVERT JUMPDEST POP JUMP JUMPDEST PUSH1 0x0 DUP2 CALLDATALOAD SWAP1 POP PUSH2 0x984 DUP2 PUSH2 0x95E JUMP JUMPDEST SWAP3 SWAP2 POP POP JUMP JUMPDEST PUSH1 0x0 DUP1 PUSH1 0x40 DUP4 DUP6 SUB SLT ISZERO PUSH2 0x9A1 JUMPI PUSH2 0x9A0 PUSH2 0x80E JUMP JUMPDEST JUMPDEST PUSH1 0x0 DUP4 ADD CALLDATALOAD PUSH8 0xFFFFFFFFFFFFFFFF DUP2 GT ISZERO PUSH2 0x9BF JUMPI PUSH2 0x9BE PUSH2 0x813 JUMP JUMPDEST JUMPDEST PUSH2 0x9CB DUP6 DUP3 DUP7 ADD PUSH2 0x930 JUMP JUMPDEST SWAP3 POP POP PUSH1 0x20 PUSH2 0x9DC DUP6 DUP3 DUP7 ADD PUSH2 0x975 JUMP JUMPDEST SWAP2 POP POP SWAP3 POP SWAP3 SWAP1 POP JUMP JUMPDEST PUSH1 0x0 PUSH1 0x20 DUP3 DUP5 SUB SLT ISZERO PUSH2 0x9FC JUMPI PUSH2 0x9FB PUSH2 0x80E JUMP JUMPDEST JUMPDEST PUSH1 0x0 PUSH2 0xA0A DUP5 DUP3 DUP6 ADD PUSH2 0x975 JUMP JUMPDEST SWAP2 POP POP SWAP3 SWAP2 POP POP JUMP JUMPDEST PUSH1 0x0 DUP2 MLOAD SWAP1 POP SWAP2 SWAP1 POP JUMP JUMPDEST PUSH1 0x0 DUP3 DUP3 MSTORE PUSH1 0x20 DUP3 ADD SWAP1 POP SWAP3 SWAP2 POP POP JUMP JUMPDEST PUSH1 0x0 JUMPDEST DUP4 DUP2 LT ISZERO PUSH2 0xA4D JUMPI DUP1 DUP3 ADD MLOAD DUP2 DUP5 ADD MSTORE PUSH1 0x20 DUP2 ADD SWAP1 POP PUSH2 0xA32 JUMP JUMPDEST PUSH1 0x0 DUP5 DUP5 ADD MSTORE POP POP POP POP JUMP JUMPDEST PUSH1 0x0 PUSH2 0xA64 DUP3 PUSH2 0xA13 JUMP JUMPDEST PUSH2 0xA6E DUP2 DUP6 PUSH2 0xA1E JUMP JUMPDEST SWAP4 POP PUSH2 0xA7E DUP2 DUP6 PUSH1 0x20 DUP7 ADD PUSH2 0xA2F JUMP JUMPDEST PUSH2 0xA87 DUP2 PUSH2 0x822 JUMP JUMPDEST DUP5 ADD SWAP2 POP POP SWAP3 SWAP2 POP POP JUMP JUMPDEST PUSH32 0x4E487B7100000000000000000000000000000000000000000000000000000000 PUSH1 0x0 MSTORE PUSH1 0x21 PUSH1 0x4 MSTORE PUSH1 0x24 PUSH1 0x0 REVERT JUMPDEST PUSH1 0x3 DUP2 LT PUSH2 0xAD2 JUMPI PUSH2 0xAD1 PUSH2 0xA92 JUMP JUMPDEST JUMPDEST POP JUMP JUMPDEST PUSH1 0x0 DUP2 SWAP1 POP PUSH2 0xAE3 DUP3 PUSH2 0xAC1 JUMP JUMPDEST SWAP2 SWAP1 POP JUMP JUMPDEST PUSH1 0x0 PUSH2 0xAF3 DUP3 PUSH2 0xAD5 JUMP JUMPDEST SWAP1 POP SWAP2 SWAP1 POP JUMP JUMPDEST PUSH2 0xB03 DUP2 PUSH2 0xAE8 JUMP JUMPDEST DUP3 MSTORE POP POP JUMP JUMPDEST PUSH1 0x0 PUSH20 0xFFFFFFFFFFFFFFFFFFFFFFFFFFFFFFFFFFFFFFFF DUP3 AND SWAP1 POP SWAP2 SWAP1 POP JUMP JUMPDEST PUSH1 0x0 PUSH2 0xB34 DUP3 PUSH2 0xB09 JUMP JUMPDEST SWAP1 POP SWAP2 SWAP1 POP JUMP JUMPDEST PUSH2 0xB44 DUP2 PUSH2 0xB29 JUMP JUMPDEST DUP3 MSTORE POP POP JUMP JUMPDEST PUSH1 0x0 PUSH1 0xC0 DUP3 ADD SWAP1 POP PUSH2 0xB5F PUSH1 0x0 DUP4 ADD DUP10 PUSH2 0x7DA JUMP JUMPDEST DUP2 DUP2 SUB PUSH1 0x20 DUP4 ADD MSTORE PUSH2 0xB71 DUP2 DUP9 PUSH2 0xA59 JUMP JUMPDEST SWAP1 POP PUSH2 0xB80 PUSH1 0x40 DUP4 ADD DUP8 PUSH2 0x7DA JUMP JUMPDEST PUSH2 0xB8D PUSH1 0x60 DUP4 ADD DUP7 PUSH2 0xAFA JUMP JUMPDEST PUSH2 0xB9A PUSH1 0x80 DUP4 ADD DUP6 PUSH2 0xB3B JUMP JUMPDEST PUSH2 0xBA7 PUSH1 0xA0 DUP4 ADD DUP5 PUSH2 0xB3B JUMP JUMPDEST SWAP8 SWAP7 POP POP POP POP POP POP POP JUMP JUMPDEST PUSH32 0x4E487B7100000000000000000000000000000000000000000000000000000000 PUSH1 0x0 MSTORE PUSH1 0x11 PUSH1 0x4 MSTORE PUSH1 0x24 PUSH1 0x0 REVERT JUMPDEST PUSH1 0x0 PUSH2 0xBEC DUP3 PUSH2 0x7D0 JUMP JUMPDEST SWAP2 POP PUSH32 0xFFFFFFFFFFFFFFFFFFFFFFFFFFFFFFFFFFFFFFFFFFFFFFFFFFFFFFFFFFFFFFFF DUP3 SUB PUSH2 0xC1E JUMPI PUSH2 0xC1D PUSH2 0xBB2 JUMP JUMPDEST JUMPDEST PUSH1 0x1 DUP3 ADD SWAP1 POP SWAP2 SWAP1 POP JUMP JUMPDEST PUSH32 0x4E487B7100000000000000000000000000000000000000000000000000000000 PUSH1 0x0 MSTORE PUSH1 0x22 PUSH1 0x4 MSTORE PUSH1 0x24 PUSH1 0x0 REVERT JUMPDEST PUSH1 0x0 PUSH1 0x2 DUP3 DIV SWAP1 POP PUSH1 0x1 DUP3 AND DUP1 PUSH2 0xC70 JUMPI PUSH1 0x7F DUP3 AND SWAP2 POP JUMPDEST PUSH1 0x20 DUP3 LT DUP2 SUB PUSH2 0xC83 JUMPI PUSH2 0xC82 PUSH2 0xC29 JUMP JUMPDEST JUMPDEST POP SWAP2 SWAP1 POP JUMP JUMPDEST PUSH1 0x0 DUP2 SWAP1 POP DUP2 PUSH1 0x0 MSTORE PUSH1 0x20 PUSH1 0x0 KECCAK256 SWAP1 POP SWAP2 SWAP1 POP JUMP JUMPDEST PUSH1 0x0 PUSH1 0x20 PUSH1 0x1F DUP4 ADD DIV SWAP1 POP SWAP2 SWAP1 POP JUMP JUMPDEST PUSH1 0x0 DUP3 DUP3 SHL SWAP1 POP SWAP3 SWAP2 POP POP JUMP JUMPDEST PUSH1 0x0 PUSH1 0x8 DUP4 MUL PUSH2 0xCEB PUSH32 0xFFFFFFFFFFFFFFFFFFFFFFFFFFFFFFFFFFFFFFFFFFFFFFFFFFFFFFFFFFFFFFFF DUP3 PUSH2 0xCAE JUMP JUMPDEST PUSH2 0xCF5 DUP7 DUP4 PUSH2 0xCAE JUMP JUMPDEST SWAP6 POP DUP1 NOT DUP5 AND SWAP4 POP DUP1 DUP7 AND DUP5 OR SWAP3 POP POP POP SWAP4 SWAP3 POP POP POP JUMP JUMPDEST PUSH1 0x0 DUP2 SWAP1 POP SWAP2 SWAP1 POP JUMP JUMPDEST PUSH1 0x0 PUSH2 0xD32 PUSH2 0xD2D PUSH2 0xD28 DUP5 PUSH2 0x7D0 JUMP JUMPDEST PUSH2 0xD0D JUMP JUMPDEST PUSH2 0x7D0 JUMP JUMPDEST SWAP1 POP SWAP2 SWAP1 POP JUMP JUMPDEST PUSH1 0x0 DUP2 SWAP1 POP SWAP2 SWAP1 POP JUMP JUMPDEST PUSH2 0xD4C DUP4 PUSH2 0xD17 JUMP JUMPDEST PUSH2 0xD60 PUSH2 0xD58 DUP3 PUSH2 0xD39 JUMP JUMPDEST DUP5 DUP5 SLOAD PUSH2 0xCBB JUMP JUMPDEST DUP3 SSTORE POP POP POP POP JUMP JUMPDEST PUSH1 0x0 SWAP1 JUMP JUMPDEST PUSH2 0xD75 PUSH2 0xD68 JUMP JUMPDEST PUSH2 0xD80 DUP2 DUP5 DUP5 PUSH2 0xD43 JUMP JUMPDEST POP POP POP JUMP JUMPDEST JUMPDEST DUP2 DUP2 LT ISZERO PUSH2 0xDA4 JUMPI PUSH2 0xD99 PUSH1 0x0 DUP3 PUSH2 0xD6D JUMP JUMPDEST PUSH1 0x1 DUP2 ADD SWAP1 POP PUSH2 0xD86 JUMP JUMPDEST POP POP JUMP JUMPDEST PUSH1 0x1F DUP3 GT ISZERO PUSH2 0xDE9 JUMPI PUSH2 0xDBA DUP2 PUSH2 0xC89 JUMP JUMPDEST PUSH2 0xDC3 DUP5 PUSH2 0xC9E JUMP JUMPDEST DUP2 ADD PUSH1 0x20 DUP6 LT ISZERO PUSH2 0xDD2 JUMPI DUP2 SWAP1 POP JUMPDEST PUSH2 0xDE6 PUSH2 0xDDE DUP6 PUSH2 0xC9E JUMP JUMPDEST DUP4 ADD DUP3 PUSH2 0xD85 JUMP JUMPDEST POP POP JUMPDEST POP POP POP JUMP JUMPDEST PUSH1 0x0 DUP3 DUP3 SHR SWAP1 POP SWAP3 SWAP2 POP POP JUMP JUMPDEST PUSH1 0x0 PUSH2 0xE0C PUSH1 0x0 NOT DUP5 PUSH1 0x8 MUL PUSH2 0xDEE JUMP JUMPDEST NOT DUP1 DUP4 AND SWAP2 POP POP SWAP3 SWAP2 POP POP JUMP JUMPDEST PUSH1 0x0 PUSH2 0xE25 DUP4 DUP4 PUSH2 0xDFB JUMP JUMPDEST SWAP2 POP DUP3 PUSH1 0x2 MUL DUP3 OR SWAP1 POP SWAP3 SWAP2 POP POP JUMP JUMPDEST PUSH2 0xE3E DUP3 PUSH2 0xA13 JUMP JUMPDEST PUSH8 0xFFFFFFFFFFFFFFFF DUP2 GT ISZERO PUSH2 0xE57 JUMPI PUSH2 0xE56 PUSH2 0x833 JUMP JUMPDEST JUMPDEST PUSH2 0xE61 DUP3 SLOAD PUSH2 0xC58 JUMP JUMPDEST PUSH2 0xE6C DUP3 DUP3 DUP6 PUSH2 0xDA8 JUMP JUMPDEST PUSH1 0x0 PUSH1 0x20 SWAP1 POP PUSH1 0x1F DUP4 GT PUSH1 0x1 DUP2 EQ PUSH2 0xE9F JUMPI PUSH1 0x0 DUP5 ISZERO PUSH2 0xE8D JUMPI DUP3 DUP8 ADD MLOAD SWAP1 POP JUMPDEST PUSH2 0xE97 DUP6 DUP3 PUSH2 0xE19 JUMP JUMPDEST DUP7 SSTORE POP PUSH2 0xEFF JUMP JUMPDEST PUSH1 0x1F NOT DUP5 AND PUSH2 0xEAD DUP7 PUSH2 0xC89 JUMP JUMPDEST PUSH1 0x0 JUMPDEST DUP3 DUP2 LT ISZERO PUSH2 0xED5 JUMPI DUP5 DUP10 ADD MLOAD DUP3 SSTORE PUSH1 0x1 DUP3 ADD SWAP2 POP PUSH1 0x20 DUP6 ADD SWAP5 POP PUSH1 0x20 DUP2 ADD SWAP1 POP PUSH2 0xEB0 JUMP JUMPDEST DUP7 DUP4 LT ISZERO PUSH2 0xEF2 JUMPI DUP5 DUP10 ADD MLOAD PUSH2 0xEEE PUSH1 0x1F DUP10 AND DUP3 PUSH2 0xDFB JUMP JUMPDEST DUP4 SSTORE POP JUMPDEST PUSH1 0x1 PUSH1 0x2 DUP9 MUL ADD DUP9 SSTORE POP POP POP JUMPDEST POP POP POP POP POP POP JUMP JUMPDEST PUSH1 0x0 PUSH1 0x80 DUP3 ADD SWAP1 POP PUSH2 0xF1C PUSH1 0x0 DUP4 ADD DUP8 PUSH2 0x7DA JUMP JUMPDEST DUP2 DUP2 SUB PUSH1 0x20 DUP4 ADD MSTORE PUSH2 0xF2E DUP2 DUP7 PUSH2 0xA59 JUMP JUMPDEST SWAP1 POP PUSH2 0xF3D PUSH1 0x40 DUP4 ADD DUP6 PUSH2 0x7DA JUMP JUMPDEST PUSH2 0xF4A PUSH1 0x60 DUP4 ADD DUP5 PUSH2 0xB3B JUMP JUMPDEST SWAP6 SWAP5 POP POP POP POP POP JUMP JUMPDEST PUSH32 0x4974656D20646F6573206E6F7420657869737400000000000000000000000000 PUSH1 0x0 DUP3 ADD MSTORE POP JUMP JUMPDEST PUSH1 0x0 PUSH2 0xF89 PUSH1 0x13 DUP4 PUSH2 0xA1E JUMP JUMPDEST SWAP2 POP PUSH2 0xF94 DUP3 PUSH2 0xF53 JUMP JUMPDEST PUSH1 0x20 DUP3 ADD SWAP1 POP SWAP2 SWAP1 POP JUMP JUMPDEST PUSH1 0x0 PUSH1 0x20 DUP3 ADD SWAP1 POP DUP2 DUP2 SUB PUSH1 0x0 DUP4 ADD MSTORE PUSH2 0xFB8 DUP2 PUSH2 0xF7C JUMP JUMPDEST SWAP1 POP SWAP2 SWAP1 POP JUMP JUMPDEST PUSH32 0x496E636F72726563742070726963650000000000000000000000000000000000 PUSH1 0x0 DUP3 ADD MSTORE POP JUMP JUMPDEST PUSH1 0x0 PUSH2 0xFF5 PUSH1 0xF DUP4 PUSH2 0xA1E JUMP JUMPDEST SWAP2 POP PUSH2 0x1000 DUP3 PUSH2 0xFBF JUMP JUMPDEST PUSH1 0x20 DUP3 ADD SWAP1 POP SWAP2 SWAP1 POP JUMP JUMPDEST PUSH1 0x0 PUSH1 0x20 DUP3 ADD SWAP1 POP DUP2 DUP2 SUB PUSH1 0x0 DUP4 ADD MSTORE PUSH2 0x1024 DUP2 PUSH2 0xFE8 JUMP JUMPDEST SWAP1 POP SWAP2 SWAP1 POP JUMP JUMPDEST PUSH32 0x4974656D206E6F7420617661696C61626C650000000000000000000000000000 PUSH1 0x0 DUP3 ADD MSTORE POP JUMP JUMPDEST PUSH1 0x0 PUSH2 0x1061 PUSH1 0x12 DUP4 PUSH2 0xA1E JUMP JUMPDEST SWAP2 POP PUSH2 0x106C DUP3 PUSH2 0x102B JUMP JUMPDEST PUSH1 0x20 DUP3 ADD SWAP1 POP SWAP2 SWAP1 POP JUMP JUMPDEST PUSH1 0x0 PUSH1 0x20 DUP3 ADD SWAP1 POP DUP2 DUP2 SUB PUSH1 0x0 DUP4 ADD MSTORE PUSH2 0x1090 DUP2 PUSH2 0x1054 JUMP JUMPDEST SWAP1 POP SWAP2 SWAP1 POP JUMP JUMPDEST PUSH1 0x0 PUSH1 0x40 DUP3 ADD SWAP1 POP PUSH2 0x10AC PUSH1 0x0 DUP4 ADD DUP6 PUSH2 0x7DA JUMP JUMPDEST PUSH2 0x10B9 PUSH1 0x20 DUP4 ADD DUP5 PUSH2 0xB3B JUMP JUMPDEST SWAP4 SWAP3 POP POP POP JUMP JUMPDEST PUSH32 0x4F6E6C792062757965722063616E20636F6E6669726D2064656C697665727900 PUSH1 0x0 DUP3 ADD MSTORE POP JUMP JUMPDEST PUSH1 0x0 PUSH2 0x10F6 PUSH1 0x1F DUP4 PUSH2 0xA1E JUMP JUMPDEST SWAP2 POP PUSH2 0x1101 DUP3 PUSH2 0x10C0 JUMP JUMPDEST PUSH1 0x20 DUP3 ADD SWAP1 POP SWAP2 SWAP1 POP JUMP JUMPDEST PUSH1 0x0 PUSH1 0x20 DUP3 ADD SWAP1 POP DUP2 DUP2 SUB PUSH1 0x0 DUP4 ADD MSTORE PUSH2 0x1125 DUP2 PUSH2 0x10E9 JUMP JUMPDEST SWAP1 POP SWAP2 SWAP1 POP JUMP JUMPDEST PUSH32 0x4974656D206E6F7420696E207472616E73697400000000000000000000000000 PUSH1 0x0 DUP3 ADD MSTORE POP JUMP JUMPDEST PUSH1 0x0 PUSH2 0x1162 PUSH1 0x13 DUP4 PUSH2 0xA1E JUMP JUMPDEST SWAP2 POP PUSH2 0x116D DUP3 PUSH2 0x112C JUMP JUMPDEST PUSH1 0x20 DUP3 ADD SWAP1 POP SWAP2 SWAP1 POP JUMP JUMPDEST PUSH1 0x0 PUSH1 0x20 DUP3 ADD SWAP1 POP DUP2 DUP2 SUB PUSH1 0x0 DUP4 ADD MSTORE PUSH2 0x1191 DUP2 PUSH2 0x1155 JUMP JUMPDEST SWAP1 POP SWAP2 SWAP1 POP JUMP INVALID LOG2 PUSH5 0x6970667358 0x22 SLT KECCAK256 SLT 0xD COINBASE PUSH14 0x416EC1699FD4D6B2F004C91E7FB7 0x1F PUSH12 0x3BA59E87FCEB83E50B0374B PUSH5 0x736F6C6343 STOP ADDMOD SHL STOP CALLER "},"methodIdentifiers":{"confirmDelivery(uint256)":"fd84cb97","createItem(string,uint256)":"8c551742","itemCount()":"6bfb0d01","items(uint256)":"bfb231d2","purchaseItem(uint256)":"d38ea5bf"}}}}}