{
  "_format": "hh-sol-artifact-1",
  "contractName": "SupplyChain",
  "sourceName": "contracts/SupplyChain.sol",
  "abi": [
    {
      "anonymous": false,
      "inputs": [
        {
          "indexed": false,
          "internalType": "uint256",
          "name": "id",
          "type": "uint256"
        },
        {
          "indexed": false,
          "internalType": "string",
          "name": "name",
          "type": "string"
        },
        {
          "indexed": false,
          "internalType": "uint256",
          "name": "price",
          "type": "uint256"
        },
        {
          "indexed": false,
          "internalType": "address",
          "name": "seller",
          "type": "address"
        }
      ],
      "name": "ItemCreated",
      "type": "event"
    },
    {
      "anonymous": false,
      "inputs": [
        {
          "indexed": false,
          "internalType": "uint256",
          "name": "id",
          "type": "uint256"
        }
      ],
      "name": "ItemDelivered",
      "type": "event"
    },
    {
      "anonymous": false,
      "inputs": [
        {
          "indexed": false,
          "internalType": "uint256",
          "name": "id",
          "type": "uint256"
        },
        {
          "indexed": false,
          "internalType": "address",
          "name": "buyer",
          "type": "address"
        }
      ],
      "name": "ItemPurchased",
      "type": "event"
    },
    {
      "inputs": [
        {
          "internalType": "uint256",
          "name": "_id",
          "type": "uint256"
        }
      ],
      "name": "confirmDelivery",
      "outputs": [],
      "stateMutability": "nonpayable",
      "type": "function"
    },
    {
      "inputs": [
        {
          "internalType": "string",
          "name": "_name",
          "type": "string"
        },
        {
          "internalType": "uint256",
          "name": "_price",
          "type": "uint256"
        }
      ],
      "name": "createItem",
      "outputs": [],
      "stateMutability": "nonpayable",
      "type": "function"
    },
    {
      "inputs": [],
      "name": "itemCount",
      "outputs": [
        {
          "internalType": "uint256",
          "name": "",
          "type": "uint256"
        }
      ],
      "stateMutability": "view",
      "type": "function"
    },
    {
      "inputs": [
        {
          "internalType": "uint256",
          "name": "",
          "type": "uint256"
        }
      ],
      "name": "items",
      "outputs": [
        {
          "internalType": "uint256",
          "name": "id",
          "type": "uint256"
        },
        {
          "internalType": "string",
          "name": "name",
          "type": "string"
        },
        {
          "internalType": "uint256",
          "name": "price",
          "type": "uint256"
        },
        {
          "internalType": "enum SupplyChain.State",
          "name": "state",
          "type": "uint8"
        },
        {
          "internalType": "address",
          "name": "seller",
          "type": "address"
        },
        {
          "internalType": "address",
          "name": "buyer",
          "type": "address"
        }
      ],
      "stateMutability": "view",
      "type": "function"
    },
    {
      "inputs": [
        {
          "internalType": "uint256",
          "name": "_id",
          "type": "uint256"
        }
      ],
      "name": "purchaseItem",
      "outputs": [],
      "stateMutability": "payable",
      "type": "function"
    }
  ],
  "bytecode": "0x6080604052348015600f57600080fd5b506111ce8061001f6000396000f3fe60806040526004361061004a5760003560e01c80636bfb0d011461004f5780638c5517421461007a578063bfb231d2146100a3578063d38ea5bf146100e5578063fd84cb9714610101575b600080fd5b34801561005b57600080fd5b5061006461012a565b60405161007191906107e9565b60405180910390f35b34801561008657600080fd5b506100a1600480360381019061009c919061098a565b610130565b005b3480156100af57600080fd5b506100ca60048036038101906100c591906109e6565b6102f8565b6040516100dc96959493929190610b4a565b60405180910390f35b6100ff60048036038101906100fa91906109e6565b610409565b005b34801561010d57600080fd5b50610128600480360381019061012391906109e6565b610647565b005b60005481565b60008081548092919061014290610be1565b91905055506040518060c0016040528060005481526020018381526020018281526020016000600281111561017a57610179610a92565b5b81526020013373ffffffffffffffffffffffffffffffffffffffff168152602001600073ffffffffffffffffffffffffffffffffffffffff1681525060016000805481526020019081526020016000206000820151816000015560208201518160010190816101e99190610e35565b506040820151816002015560608201518160030160006101000a81548160ff0219169083600281111561021f5761021e610a92565b5b021790555060808201518160030160016101000a81548173ffffffffffffffffffffffffffffffffffffffff021916908373ffffffffffffffffffffffffffffffffffffffff16021790555060a08201518160040160006101000a81548173ffffffffffffffffffffffffffffffffffffffff021916908373ffffffffffffffffffffffffffffffffffffffff1602179055509050507f4f7f943ede3f118d52f137992d1d5e5f5723aac6037c6b8814b8432f44ed05a16000548383336040516102ec9493929190610f07565b60405180910390a15050565b600160205280600052604060002060009150905080600001549080600101805461032190610c58565b80601f016020809104026020016040519081016040528092919081815260200182805461034d90610c58565b801561039a5780601f1061036f5761010080835404028352916020019161039a565b820191906000526020600020905b81548152906001019060200180831161037d57829003601f168201915b5050505050908060020154908060030160009054906101000a900460ff16908060030160019054906101000a900473ffffffffffffffffffffffffffffffffffffffff16908060040160009054906101000a900473ffffffffffffffffffffffffffffffffffffffff16905086565b600060016000838152602001908152602001600020905060008211801561043257506000548211155b610471576040517f08c379a000000000000000000000000000000000000000000000000000000000815260040161046890610f9f565b60405180910390fd5b806002015434146104b7576040517f08c379a00000000000000000000000000000000000000000000000000000000081526004016104ae9061100b565b60405180910390fd5b600060028111156104cb576104ca610a92565b5b8160030160009054906101000a900460ff1660028111156104ef576104ee610a92565b5b1461052f576040517f08c379a000000000000000000000000000000000000000000000000000000000815260040161052690611077565b60405180910390fd5b338160040160006101000a81548173ffffffffffffffffffffffffffffffffffffffff021916908373ffffffffffffffffffffffffffffffffffffffff16021790555060018160030160006101000a81548160ff0219169083600281111561059a57610599610a92565b5b02179055508060030160019054906101000a900473ffffffffffffffffffffffffffffffffffffffff1673ffffffffffffffffffffffffffffffffffffffff166108fc349081150290604051600060405180830381858888f19350505050158015610609573d6000803e3d6000fd5b507f7ce670ea54227685ed72f8669179c51b47ba2251ce7cfac367725a7b8f9b743d823360405161063b929190611097565b60405180910390a15050565b60006001600083815260200190815260200160002090503373ffffffffffffffffffffffffffffffffffffffff168160040160009054906101000a900473ffffffffffffffffffffffffffffffffffffffff1673ffffffffffffffffffffffffffffffffffffffff16146106f0576040517f08c379a00000000000000000000000000000000000000000000000000000000081526004016106e79061110c565b60405180910390fd5b6001600281111561070457610703610a92565b5b8160030160009054906101000a900460ff16600281111561072857610727610a92565b5b14610768576040517f08c379a000000000000000000000000000000000000000000000000000000000815260040161075f90611178565b60405180910390fd5b60028160030160006101000a81548160ff021916908360028111156107905761078f610a92565b5b02179055507fd2f1cdd76b4e7bfba9c07af47c5c4f187ffbbd992b4fa1afce4df6a00a166e85826040516107c491906107e9565b60405180910390a15050565b6000819050919050565b6107e3816107d0565b82525050565b60006020820190506107fe60008301846107da565b92915050565b6000604051905090565b600080fd5b600080fd5b600080fd5b600080fd5b6000601f19601f8301169050919050565b7f4e487b7100000000000000000000000000000000000000000000000000000000600052604160045260246000fd5b61086b82610822565b810181811067ffffffffffffffff8211171561088a57610889610833565b5b80604052505050565b600061089d610804565b90506108a98282610862565b919050565b600067ffffffffffffffff8211156108c9576108c8610833565b5b6108d282610822565b9050602081019050919050565b82818337600083830152505050565b60006109016108fc846108ae565b610893565b90508281526020810184848401111561091d5761091c61081d565b5b6109288482856108df565b509392505050565b600082601f83011261094557610944610818565b5b81356109558482602086016108ee565b91505092915050565b610967816107d0565b811461097257600080fd5b50565b6000813590506109848161095e565b92915050565b600080604083850312156109a1576109a061080e565b5b600083013567ffffffffffffffff8111156109bf576109be610813565b5b6109cb85828601610930565b92505060206109dc85828601610975565b9150509250929050565b6000602082840312156109fc576109fb61080e565b5b6000610a0a84828501610975565b91505092915050565b600081519050919050565b600082825260208201905092915050565b60005b83811015610a4d578082015181840152602081019050610a32565b60008484015250505050565b6000610a6482610a13565b610a6e8185610a1e565b9350610a7e818560208601610a2f565b610a8781610822565b840191505092915050565b7f4e487b7100000000000000000000000000000000000000000000000000000000600052602160045260246000fd5b60038110610ad257610ad1610a92565b5b50565b6000819050610ae382610ac1565b919050565b6000610af382610ad5565b9050919050565b610b0381610ae8565b82525050565b600073ffffffffffffffffffffffffffffffffffffffff82169050919050565b6000610b3482610b09565b9050919050565b610b4481610b29565b82525050565b600060c082019050610b5f60008301896107da565b8181036020830152610b718188610a59565b9050610b8060408301876107da565b610b8d6060830186610afa565b610b9a6080830185610b3b565b610ba760a0830184610b3b565b979650505050505050565b7f4e487b7100000000000000000000000000000000000000000000000000000000600052601160045260246000fd5b6000610bec826107d0565b91507fffffffffffffffffffffffffffffffffffffffffffffffffffffffffffffffff8203610c1e57610c1d610bb2565b5b600182019050919050565b7f4e487b7100000000000000000000000000000000000000000000000000000000600052602260045260246000fd5b60006002820490506001821680610c7057607f821691505b602082108103610c8357610c82610c29565b5b50919050565b60008190508160005260206000209050919050565b60006020601f8301049050919050565b600082821b905092915050565b600060088302610ceb7fffffffffffffffffffffffffffffffffffffffffffffffffffffffffffffffff82610cae565b610cf58683610cae565b95508019841693508086168417925050509392505050565b6000819050919050565b6000610d32610d2d610d28846107d0565b610d0d565b6107d0565b9050919050565b6000819050919050565b610d4c83610d17565b610d60610d5882610d39565b848454610cbb565b825550505050565b600090565b610d75610d68565b610d80818484610d43565b505050565b5b81811015610da457610d99600082610d6d565b600181019050610d86565b5050565b601f821115610de957610dba81610c89565b610dc384610c9e565b81016020851015610dd2578190505b610de6610dde85610c9e565b830182610d85565b50505b505050565b600082821c905092915050565b6000610e0c60001984600802610dee565b1980831691505092915050565b6000610e258383610dfb565b9150826002028217905092915050565b610e3e82610a13565b67ffffffffffffffff811115610e5757610e56610833565b5b610e618254610c58565b610e6c828285610da8565b600060209050601f831160018114610e9f5760008415610e8d578287015190505b610e978582610e19565b865550610eff565b601f198416610ead86610c89565b60005b82811015610ed557848901518255600182019150602085019450602081019050610eb0565b86831015610ef25784890151610eee601f891682610dfb565b8355505b6001600288020188555050505b505050505050565b6000608082019050610f1c60008301876107da565b8181036020830152610f2e8186610a59565b9050610f3d60408301856107da565b610f4a6060830184610b3b565b95945050505050565b7f4974656d20646f6573206e6f7420657869737400000000000000000000000000600082015250565b6000610f89601383610a1e565b9150610f9482610f53565b602082019050919050565b60006020820190508181036000830152610fb881610f7c565b9050919050565b7f496e636f72726563742070726963650000000000000000000000000000000000600082015250565b6000610ff5600f83610a1e565b915061100082610fbf565b602082019050919050565b6000602082019050818103600083015261102481610fe8565b9050919050565b7f4974656d206e6f7420617661696c61626c650000000000000000000000000000600082015250565b6000611061601283610a1e565b915061106c8261102b565b602082019050919050565b6000602082019050818103600083015261109081611054565b9050919050565b60006040820190506110ac60008301856107da565b6110b96020830184610b3b565b9392505050565b7f4f6e6c792062757965722063616e20636f6e6669726d2064656c697665727900600082015250565b60006110f6601f83610a1e565b9150611101826110c0565b602082019050919050565b60006020820190508181036000830152611125816110e9565b9050919050565b7f4974656d206e6f7420696e207472616e73697400000000000000000000000000600082015250565b6000611162601383610a1e565b915061116d8261112c565b602082019050919050565b6000602082019050818103600083015261119181611155565b905091905056fea2646970667358221220120d416d416ec1699fd4d6b2f004c91e7fb71f6b03ba59e87fceb83e50b0374b64736f6c634300081b0033",
  "linkReferences": {},
  "deployedLinkReferences": {}
}